{
  "contractName": "feeDwitterManagment",
  "abi": [
    {
      "inputs": [],
      "stateMutability": "nonpayable",
      "type": "constructor"
    },
    {
      "anonymous": false,
      "inputs": [
        {
          "indexed": true,
          "internalType": "address",
          "name": "previousOwner",
          "type": "address"
        },
        {
          "indexed": true,
          "internalType": "address",
          "name": "newOwner",
          "type": "address"
        }
      ],
      "name": "OwnershipTransferred",
      "type": "event"
    },
    {
      "inputs": [],
      "name": "owner",
      "outputs": [
        {
          "internalType": "address",
          "name": "",
          "type": "address"
        }
      ],
      "stateMutability": "view",
      "type": "function",
      "constant": true
    },
    {
      "inputs": [],
      "name": "renounceOwnership",
      "outputs": [],
      "stateMutability": "nonpayable",
      "type": "function"
    },
    {
      "inputs": [
        {
          "internalType": "address",
          "name": "newOwner",
          "type": "address"
        }
      ],
      "name": "transferOwnership",
      "outputs": [],
      "stateMutability": "nonpayable",
      "type": "function"
    },
    {
      "inputs": [
        {
          "internalType": "uint256",
          "name": "_fee",
          "type": "uint256"
        }
      ],
      "name": "SetFee",
      "outputs": [],
      "stateMutability": "nonpayable",
      "type": "function"
    },
    {
      "inputs": [],
      "name": "getFee",
      "outputs": [
        {
          "internalType": "uint256",
          "name": "",
          "type": "uint256"
        }
      ],
      "stateMutability": "view",
      "type": "function",
      "constant": true
    },
    {
      "inputs": [
        {
          "internalType": "address",
          "name": "newOwner",
          "type": "address"
        }
      ],
      "name": "transferOwnership2",
      "outputs": [],
      "stateMutability": "nonpayable",
      "type": "function"
    }
  ],
  "bytecode": "0x60806040526000600260006101000a81548160ff02191690831515021790555034801561002b57600080fd5b5061004861003d61005560201b60201c565b61005d60201b60201c565b6000600181905550610121565b600033905090565b60008060009054906101000a900473ffffffffffffffffffffffffffffffffffffffff169050816000806101000a81548173ffffffffffffffffffffffffffffffffffffffff021916908373ffffffffffffffffffffffffffffffffffffffff1602179055508173ffffffffffffffffffffffffffffffffffffffff168173ffffffffffffffffffffffffffffffffffffffff167f8be0079c531659141344cd1fd0a4f28419497f9722a3daafe3b4186f6b6457e060405160405180910390a35050565b610846806101306000396000f3fe608060405234801561001057600080fd5b50600436106100615760003560e01c8062172ddf14610066578063715018a6146100825780638da5cb5b1461008c578063ced72f87146100aa578063e2b375a9146100c8578063f2fde38b146100e4575b600080fd5b610080600480360381019061007b9190610570565b610100565b005b61008a6101a9565b005b610094610231565b6040516100a191906105de565b60405180910390f35b6100b261025a565b6040516100bf9190610608565b60405180910390f35b6100e260048036038101906100dd919061064f565b610264565b005b6100fe60048036038101906100f9919061064f565b610371565b005b610108610469565b73ffffffffffffffffffffffffffffffffffffffff16610126610231565b73ffffffffffffffffffffffffffffffffffffffff161461017c576040517f08c379a0000000000000000000000000000000000000000000000000000000008152600401610173906106d9565b60405180910390fd5b600260009054906101000a900460ff166101a6576000808261019e9190610728565b600181905550505b50565b6101b1610469565b73ffffffffffffffffffffffffffffffffffffffff166101cf610231565b73ffffffffffffffffffffffffffffffffffffffff1614610225576040517f08c379a000000000000000000000000000000000000000000000000000000000815260040161021c906106d9565b60405180910390fd5b61022f6000610471565b565b60008060009054906101000a900473ffffffffffffffffffffffffffffffffffffffff16905090565b6000600154905090565b61026c610469565b73ffffffffffffffffffffffffffffffffffffffff1661028a610231565b73ffffffffffffffffffffffffffffffffffffffff16146102e0576040517f08c379a00000000000000000000000000000000000000000000000000000000081526004016102d7906106d9565b60405180910390fd5b600260009054906101000a900460ff1661036e57600073ffffffffffffffffffffffffffffffffffffffff168173ffffffffffffffffffffffffffffffffffffffff161415610364576040517f08c379a000000000000000000000000000000000000000000000000000000000815260040161035b906107f0565b60405180910390fd5b61036d81610471565b5b50565b610379610469565b73ffffffffffffffffffffffffffffffffffffffff16610397610231565b73ffffffffffffffffffffffffffffffffffffffff16146103ed576040517f08c379a00000000000000000000000000000000000000000000000000000000081526004016103e4906106d9565b60405180910390fd5b600073ffffffffffffffffffffffffffffffffffffffff168173ffffffffffffffffffffffffffffffffffffffff16141561045d576040517f08c379a0000000000000000000000000000000000000000000000000000000008152600401610454906107f0565b60405180910390fd5b61046681610471565b50565b600033905090565b60008060009054906101000a900473ffffffffffffffffffffffffffffffffffffffff169050816000806101000a81548173ffffffffffffffffffffffffffffffffffffffff021916908373ffffffffffffffffffffffffffffffffffffffff1602179055508173ffffffffffffffffffffffffffffffffffffffff168173ffffffffffffffffffffffffffffffffffffffff167f8be0079c531659141344cd1fd0a4f28419497f9722a3daafe3b4186f6b6457e060405160405180910390a35050565b600080fd5b6000819050919050565b61054d8161053a565b811461055857600080fd5b50565b60008135905061056a81610544565b92915050565b60006020828403121561058657610585610535565b5b60006105948482850161055b565b91505092915050565b600073ffffffffffffffffffffffffffffffffffffffff82169050919050565b60006105c88261059d565b9050919050565b6105d8816105bd565b82525050565b60006020820190506105f360008301846105cf565b92915050565b6106028161053a565b82525050565b600060208201905061061d60008301846105f9565b92915050565b61062c816105bd565b811461063757600080fd5b50565b60008135905061064981610623565b92915050565b60006020828403121561066557610664610535565b5b60006106738482850161063a565b91505092915050565b600082825260208201905092915050565b7f4f776e61626c653a2063616c6c6572206973206e6f7420746865206f776e6572600082015250565b60006106c360208361067c565b91506106ce8261068d565b602082019050919050565b600060208201905081810360008301526106f2816106b6565b9050919050565b7f4e487b7100000000000000000000000000000000000000000000000000000000600052601160045260246000fd5b60006107338261053a565b915061073e8361053a565b9250827fffffffffffffffffffffffffffffffffffffffffffffffffffffffffffffffff03821115610773576107726106f9565b5b828201905092915050565b7f4f776e61626c653a206e6577206f776e657220697320746865207a65726f206160008201527f6464726573730000000000000000000000000000000000000000000000000000602082015250565b60006107da60268361067c565b91506107e58261077e565b604082019050919050565b60006020820190508181036000830152610809816107cd565b905091905056fea26469706673582212208a741b56afab3ba2554e05057b1a95ba67de848971fb84d0a6351b7fada599d664736f6c634300080b0033",
  "immutableReferences": {},
  "source": "pragma solidity ^0.8.10;\r\npragma abicoder v2;\r\nimport \"@openzeppelin/contracts/access/Ownable.sol\";\r\n\r\ncontract feeDwitterManagment is Ownable {\r\n    uint dwitterFee;\r\n    bool internal stopped = false;\r\n\r\n    constructor (){dwitterFee= 0.00 ether; }\r\n\r\n    function SetFee(uint _fee) public virtual onlyOwner stopInEmergency {\r\n        uint feeAux=0.000 ether;\r\n        dwitterFee=_fee+feeAux;\r\n    }\r\n\r\n    function getFee() public view returns(uint){\r\n        return dwitterFee;\r\n    }\r\n  \r\n    modifier stopInEmergency { if (!stopped) _; }\r\n\r\n function transferOwnership2(address newOwner) public virtual onlyOwner stopInEmergency {\r\n        require(newOwner != address(0), \"Ownable: new owner is the zero address\");\r\n        _transferOwnership(newOwner);\r\n    }\r\n\r\n}",
  "sourcePath": "C:\\Users\\Fausto\\source\\repos\\oncelot\\dwitter\\contracts\\feeDwitterManagment.sol",
  "compiler": {
    "name": "solc",
    "version": "0.8.11+commit.d7f03943.Emscripten.clang"
  },
  "schemaVersion": "3.4.3",
  "updatedAt": "2022-01-18T14:28:54.516Z",
  "networkType": "ethereum",
  "devdoc": {
    "kind": "dev",
    "methods": {
      "owner()": {
        "details": "Returns the address of the current owner."
      },
      "renounceOwnership()": {
        "details": "Leaves the contract without owner. It will not be possible to call `onlyOwner` functions anymore. Can only be called by the current owner. NOTE: Renouncing ownership will leave the contract without an owner, thereby removing any functionality that is only available to the owner."
      },
      "transferOwnership(address)": {
        "details": "Transfers ownership of the contract to a new account (`newOwner`). Can only be called by the current owner."
      }
    },
    "version": 1
  },
  "userdoc": {
    "kind": "user",
    "methods": {},
    "version": 1
  }
}